:020000040000FA
:1000000083160030860001308500831289010C3090
:1000100084008001840A50300402031D0928143032
:10002000840014201D201128403009020319B02833
:10003000831608148312890A0800081D212823202A
:1000400008008E200800881C27282920080060202E
:100050000800081C2D282F2008003D2008008C08CF
:100060000319B0280408CF000C080C3E84000008D7
:1000700089008C034F088400080007300C02031924
:10008000B028800803194F280408CF008C0A0C08F8
:100090000C3E8400090380004F0884000800CF0153
:1000A000CF0A14200630080203195B280730080223
:1000B00003195D285128CF0A5128CF0B51284E280B
:1000C000081C64288920080070200800831600306E
:1000D0008600831208008316FF3086008312080012
:1000E000662000088600762086010800FF30CF00D9
:1000F000051C7828CF0B7A2805188028CF0078288F
:1001000005188028CF0F8228051C8828CF01802859
:1001100008006B207620060880000800881C9228C2
:10012000942008009E200800081C98289A200800A7
:100130009C20080080030800800A0800081CA228F0
:10014000A4200800AA200800840313300402031925
:10015000B0280800840A4F3004020319B0280800B0
:060160001E308500B228EC
:00000001FF
